:02000004C0DE5C
:1000000010B5044662B60AF09DFD002C08BF09F049
:10001000FEFD002010BD2DE9F0418AB000260796B4
:10002000CDE90566CDE90366CDE901660096D9B153
:10003000142A0BD30130089040206D460C460990DD
:1000400008A801212A460AF01AFC18B100200AB0BB
:10005000BDE8F08105F10C01204614220BF032FEC0
:1000600001200AB0BDE8F08174467D464CF654008C
:10007000C0F2000078440AF083FD4DF26208C0F23D
:100080000008F84440460AF07BFD4CF64640C0F2BA
:10009000000078440AF074FD41F64040C0F20000D0
:1000A00009EB00073846414609220BF00BFE3846A3
:1000B0000BF07EFE39180A223A544E704CF6EE765A
:1000C000C0F200067E44304622210AF07BFC304616
:1000D00022210AF05BFC204629460AF03DFC20461E
:1000E00029460AF017FC0AF0A3FCF0B583B00028FB
:1000F00000F0D68104460078E02823D16078002102
:100100000E2802910191009121DC072839DC042896
:1001100065DD052800F0BD80062800F0D4800728A2
:1001200040F071814CF6BF10C0F200007844072106
:100130000AF026FDA178002900F06A81032940F227
:100140006A81A5E1002000214FF4DC42A4E11328DC
:1001500035DC102855DD112800F0BD80122800F094
:10016000CD80132840F04F81A068A17800902079BD
:10017000E278019000200290684601F0AFF803B0E9
:10018000F0BD092856DD0A2800F0C5800B2800F0D4
:10019000D0800C2840F03781A078002840F078818A
:1001A000E078002840F07481A0682179CDE9000151
:1001B00000200290684600F070FF03B0F0BD1528E3
:1001C00053DD162800F0C380172800F0CE802228C7
:1001D00040F01981684600F0FDFC03B0F0BD032833
:1001E00000F0D680042840F00E81A078002840F06E
:1001F0004F81E078002840F04B8100F01DFA03B0F9
:10020000F0BD0F2800F0CE80102840F0FC80A078D0
:10021000002840F03D81E078002840F03981A06856
:100220002179CDE9000100200290684601F00FF825
:1002300003B0F0BD082800F0C680092840F0E38034
:10024000E078002840F02481A178022902D3802997
:1002500040F01E81A0682279CDE9000200200290C2
:10026000684600F0A6FE03B0F0BD142800F0B88088
:10027000152840F0C880A068002800F0FA80217995
:10028000CDE9000100200290684601F099F803B022
:10029000F0BDA178012900F2FB80E078002840F051
:1002A000F780A068002800F0E48022790029CDE9D9
:1002B00000024FF000000290684618BF012100F0D4
:1002C000D1F903B0F0BDA178002900F0BA8003296C
:1002D00040F2BA80DCE0A078002840F0D980E078D5
:1002E000002840F0D580A0682179CDE900010020E8
:1002F0000290684600F0F5FE03B0F0BDA068A1785A
:1003000000902079E278019000200290684600F089
:10031000CCFF03B0F0BDA068002800F0AA802179CE
:10032000CDE9000100200290684600F012FE03B003
:10033000F0BDA068002800F09C802179CDE9000183
:1003400000200290684600F08CFE03B0F0BDA0686B
:10035000002800F08E802179CDE900010020029074
:10036000684601F068F803B0F0BDA178042980F078
:100370008F80E078002840F08B80A0682279CDE95A
:10038000000200200290684600F0D4F903B0F0BDEE
:10039000A07800287CD1E078002879D100F0B1F96C
:1003A00003B0F0BDE078002872D1A178022965D2AF
:1003B000A0682279CDE9000200200290684600F092
:1003C000ACFE03B0F0BDA068002852D02179CDE981
:1003D000000100200290684600F0CCFD03B0F0BDA3
:1003E000A078012854D8E078002851D1A0680028CE
:1003F0003FD02179CDE9000100200290684600F04D
:1004000086FF03B0F0BD002000214FF4DA4243E044
:10041000E07880283CD1E07840F08002802A37D113
:10042000A26832B30092227963780192002240B22E
:100430000292DA1FC0B2B2FA82F25309C2096846C8
:1004400013E0E078802823D1E07840F08002802A11
:100450001ED1A2686AB1237940B2CDE900230022FF
:10046000C0B20292C2096846002300F07EFC03B0CD
:10047000F0BD0020002146F687220DE0802907D13B
:100480002079022804D1022992D380293FF490AF29
:100490000020002146F6862209F032FB03B0F0BDB1
:1004A00074467D464CF21C40C0F2000078440AF0CD
:1004B00067FB4CF64E46C0F200067E4430460AF01A
:1004C0005FFB4CF60E00C0F2000078440AF058FBC7
:1004D00041F64040C0F2000009EB000738463146C3
:1004E00009220BF0EFFB38460BF062FC0A223918A8
:1004F0003A54002048704CF6C736C0F200067E44DD
:10050000304627210AF05EFA304627210AF03EFAEB
:10051000204629460AF020FA204629460AF0FAF930
:100520000AF086FA2DE9F04D88B009F0CCFA01F016
:100530009BFB40F20000C0F2000048444FF43A71C7
:100540000BF0D8FB01F026F84EF2AC40C0F20000F0
:1005500078440BF0A5F98078012810D00020ADF880
:10056000100001208DF812004EF28C40C0F2000005
:1005700078440BF095F904A903220BF0C1F909F0B6
:10058000ABFA00284DD44CF2032AC0F2000A4BF615
:100590008238C0F200084CF2763B41F27376C0F22A
:1005A000000B0446C0F2000605ADFA44F844FB44D3
:1005B00011E000BF09EB0602584621460AF0E0FAB6
:1005C0000020002146F6872209F09AFA09F084FA01
:1005D000044600282AD409EB06012846224609F0E1
:1005E00047FB0028E6D09DF817009DF818409DF8BD
:1005F00014109DF815209DF81630079FCDE90004D2
:100600005046029403970AF0BBFA2846FFF76DFDA7
:10061000B0F1FF3FDADC4BF6C718C0F20008F8442F
:1006200004E04BF60438C0F20008F84440460AF0F3
:10063000A7FA08B0BDE8F08D80B584B04CF2475001
:10064000C0F2000078440BF02BF9019005200290D5
:100650000020039001A801214FF4104209F050FA44
:1006600004B080BDF0B585B040F20007C0F20007CD
:1006700009EB07060C46054630464FF43A710BF07D
:1006800039FB002086F8B80209F8070006F5397131
:10069000284608F08FFF18B309EB070090F8E42212
:1006A00000F52F71284608F0DDFFC8B109EB0700FF
:1006B00090F8E4320027052100F1490200F1080614
:1006C000CDE90062CDE9021700F52F72002021214B
:1006D000049709F09EF858B182B20020002103E08F
:1006E0000020002146F6872209F00AFA05B0F0BD85
:1006F0001CB101F0CAFB05B0F0BD00F0F6FE05B07C
:10070000F0BD80B584B0022001218DF801000320E6
:100710008DF803100DF101018DF80200CDE90110F3
:100720000020039001A801214FF4104209F0E8F9DC
:1007300004B080BD2DE9F04DFCB00129044648DC31
:10074000002900F03381012940F0B88141F20040D6
:10075000C0F2000009EB000191F85D11012940F0A1
:10076000AD81D4E90121521A682A40F0AC81226897
:1007700009EB00051144284620220BF0A3FA20467D
:10078000202108F00CFF2068A1681422014405F123
:1007900020000BF097FA2046142108F000FF206893
:1007A000A1681422014405F134000BF08BFA2046B5
:1007B000142108F0F4FE2068A1682022014405F10C
:1007C00048000BF07FFA2046202108F0E8FE0220C6
:1007D0006DE1022900F01281032940F06F8141F29E
:1007E0000048C0F2000809EB080090F85D010328FA
:1007F00040F06481A668D4E9004009EB0801801B41
:1008000085B2002081F85C01ADB10AA84FF4807177
:100810000AF068F868B9344474A8202600900AA841
:10082000012122462B4601960AF052F8002800F0DA
:1008300053814FF0FF30002840F0AD800AA84FF4FC
:1008400080710AF04FF8002840F0A580002409EBE1
:10085000080A7694CDE974440DF5E87C0AF1340079
:100860000CF10C0B90E8EC005946ECC10AAD28469F
:100870000021624620236646CDE9004420270AF085
:1008800027F8304620210BF035FA0AF148022846B5
:1008900000212023009401940AF01AF80AF168025A
:1008A000284600212023009401940AF011F80AF14F
:1008B0008802284600212023009401940AF008F8B9
:1008C0000AF1A8022846002120230094019409F08F
:1008D000FFFF0AF1C802284600212023009401945A
:1008E00009F0F6FF0AF1E8022846002120230094CF
:1008F000019409F0EDFF0AF58472284600212023B7
:100900000094019409F0E4FF02A800902846012118
:1009100000220023019709F0DBFFE0BB0AA84FF497
:10092000807109F0DFFFB0BB00240AA802AA0021F1
:100930002023CDE9004409F0CBFF09EB08057694AC
:10094000CDE9744405F12000B24690E8CE008BE872
:10095000CE000AAE30460021524620230094019476
:1009600009F0B6FF504620210BF0C4F940F2000414
:10097000C0F2000409EB040000F512700090202082
:100980000190304601212A462023012509F0A0FFCD
:10099000002800F0E08009EB08004FF4AF710BF085
:1009A000A9F9002000214FF4D54290E041F2004522
:1009B000C0F2000509EB05004FF4AF710BF09AF996
:1009C00040F20006C0F2000609EB060000F539719E
:1009D000204608F0EFFD002875D009EB060090F8DE
:1009E000E42200F52F71204608F03CFE00286AD072
:1009F00009EB0500012180F85D115AE041F2004049
:100A0000C0F2000009EB000191F85D11022955D1F7
:100A1000D4E90121521AC02A55D1226809EB0005F8
:100A2000114405F1680020220BF04CF920462021EA
:100A300008F0B5FD2068A1682022014405F1880076
:100A40000BF040F92046202108F0A9FD2068A1689C
:100A50002022014405F1A8000BF034F920462021A2
:100A600008F09DFD2068A1682022014405F1C8001E
:100A70000BF028F92046202108F091FD2068A1689C
:100A80002022014405F1E8000BF01CF9204620214A
:100A900008F085FD2068A1682022014405F58470D6
:100AA0000BF010F92046202108F079FD032085F88D
:100AB0005D01002000214FF4104208E000200021D9
:100AC00046F6862203E00020002146F6872209F040
:100AD00017F87CB0BDE8F08D09EB080000F1880143
:100AE00074A820220BF00CF948B14CF2FE00C0F2C1
:100AF000000078440AF044F84FF0FF309BE6442DA4
:100B00001ED32078B6281BD160781D2818D1A07874
:100B1000272815D1E078F62812D109EB080504F151
:100B2000100105F5947014220BF0CCF804F12401A7
:100B300005F59E7020220BF0C5F8012085F85C01B8
:100B400074A820210BF0D6F80AA84FF4D4710BF04A
:100B5000D1F800206FE602A820210BF0CBF80AA8FC
:100B60004FF4D4710BF0C6F809EB0400052180F8AE
:100B7000B81209EB0800FF2109F8045080F85D1154
:100B800001F0F6FB7CB0BDE8F08D41F20040C0F210
:100B9000000048443430704741F20040C0F2000089
:100BA0004844704741F20040C0F20000484400F55C
:100BB0009470704741F20040C0F20000484400F5D4
:100BC0009E70704741F20040C0F20000484490F827
:100BD0005C017047F0B5A3B004464BF69810C0F224
:100BE0000000784409F0CCFF00F0D4FC0DAD28469D
:100BF0004C210BF071F82046294609F067FB40B103
:100C000001464BF24050C0F20000784409F0B8FFB2
:100C100078E04BF63500C0F20000784409F0B0FFF0
:100C20009DF834104BF60860C0F20000784409F0DB
:100C3000A7FF0E994BF60150C0F20000784409F06E
:100C40009FFF4BF2CD5005F11804C0F2000078442C
:100C5000214609F095FF9DF83C104BF6F040C0F29C
:100C60000000784409F08CFF0E9B48F2010123F04C
:100C70000040884239D10020CDE90A00CDE90800C2
:100C8000CDE90600CDE904004CF28441C0F2000138
:100C900079448B68D1E9002105F10C0004AD229361
:100CA000CDE92021CDE90005029540F2A903C0F26B
:100CB00000037B4420A801210022012709F09CF9B0
:100CC00040B304AB10260FCB039603AECDE900670B
:100CD00009F064F920B39DF83C0005F110022146AB
:100CE00000F062FC4FF4104423E04BF28140C0F26C
:100CF000000048F201027844C8F2000248F2010103
:100D000009F03EFF002000214BF2090208F0F8FE36
:100D100023B0F0BD4CF25200C0F20000784404E071
:100D20004BF6C820C0F2000078444BF2090409F0E9
:100D300027FF002000212246E8E7B0B505464BF624
:100D40009470C0F2000078440C4609F019FF04F1D9
:100D5000100128462022202309F0A6F8B0BD103843
:100D6000B0FA80F04009002170472DE9F04186B0CB
:100D70000127002B18BF02270646B9B140F2000830
:100D8000C0F2000809EB080090F8B8021C461546AE
:100D9000B84230D109EB0800D0F81402726811187B
:100DA000B1F5FF7F33D946F6872226E040F20005F1
:100DB000C0F2000509EB050420464FF43A710AF031
:100DC00099FF002009F8050004F53971304684F8D0
:100DD000B87208F0EFFB48B109EB050090F8E42287
:100DE00000F52F71304608F03DFC58B90020002175
:100DF00046F68722A8E046F685120020002800F07B
:100E0000A180EDB1002000214FF410429CE009EBDD
:100E10000801084400F11401304608F04FFC002896
:100E200062D009EB08017068D1F814221044C1F8AF
:100E300014024FF410420120002800F08380E0E704
:100E400009EB0800D0F8142200F11401CDE90112D9
:100E50000026047200F5067101A82246039600F0F0
:100E600074FC05464BF6B850C0F2000078442946A1
:100E700009F086FE012D3AD19CB109EB0801D1F8A9
:100E800034020C3100F0D4FB00284FD009EB0800ED
:100E9000C168027C4BF6D220C0F20000784409F011
:100EA0006FFE012009F8080009EB0800D0F81412C1
:100EB00000F11402CDE9042100F5127204A8012109
:100EC00009F0DDFCC8BB09EB080000F512724CF21A
:100ED0007700C0F200007844202109F051FE4FF461
:100EE0001042012636B92DE04FF4D54285E74FF484
:100EF000D5423EB309EB0800D0F838024BF2CC11D2
:100F0000C0F2000179440AF049FF28B14CB101F068
:100F10003BF906B0BDE8F08101F01FF806B0BDE86E
:100F2000F08101F02BF906B0BDE8F0814BF26A6068
:100F3000C0F20000784409F023FE4FF4D5420026A9
:100F4000002ED7D10020002108F0DAFD06B0BDE860
:100F5000F08180B584B0D0E900104FF41042CDE9A3
:100F600001100020039001A8012108F0C9FD002014
:100F700004B080BDB0B5F6B06D460446284602F018
:100F8000BDFD2168A288284602F0BEFD6BAC284654
:100F9000214602F0BDFD202074900020759073A8BA
:100FA00001214FF41042739408F0AAFD002076B09E
:100FB000B0BD70B594B080290AD0012920D0C1BB42
:100FC00040F2E820C0F20000484402F0A5FD20E015
:100FD00040F2E825C0F2000509EB050002F0C5FD6E
:100FE0000446F8B909EB050001AD29464022402628
:100FF00002F0D2FD044620B3052002282ED111E0D4
:10100000D0E9001240F2E820C0F20000484402F0AB
:1010100096FD044630B9002000214FF41042002410
:1010200008F06EFD14B14FF4D54204E0002014B076
:1010300070BD46F686220020002108F061FD14B044
:1010400070BD0020139011A801214FF41042CDE98A
:10105000115608F055FD02200228E3D00528E1D002
:10106000EDE710B5ADF5826D016801AC204603F0E7
:1010700055FE4FF48070CDF808040020CDF80C0424
:101080000DF2044001214FF41042CDF8044408F061
:1010900037FD00200DF5826D10BD10B5ADF5726DF8
:1010A00040F2E820C0F20000484441F2F401421846
:1010B0000DF52060694604F02FF838B100200021BA
:1010C0004FF4D54208F01CFD044606E00020002144
:1010D0004FF41042002408F013FD20460DF5726D08
:1010E00010BD10B5ADF5726D0DF52060694604F0C8
:1010F00002F838B1002000214FF4D54208F000FD7D
:10110000044606E0002000214FF41042002408F0BD
:10111000F7FC20460DF5726D10BD70B5ADF5736D21
:101120008029054615D0012929D0B1BB40F2E8201D
:10113000C0F20000484441F2F40142180DF60420C8
:1011400001A903F0E9FF044650B30520022834D179
:1011500035E040F2E826C0F2000609EB060041F255
:10116000F40142180DF6042001A903F0D5FFB8B32D
:1011700004460521052922D0022920D029E0D5E9FD
:10118000000104F0D8F80446C8B9002000214FF44B
:101190001042002408F0B4FC11E046F6862211E06B
:1011A0000020002104F09AF8002000214FF41042A2
:1011B00008F0A6FC0220022801D0052809D15CB164
:1011C0004FF4D5420020002108F09AFC0DF5736D14
:1011D00070BD0DF5736D70BD00200DF5736D70BDA4
:1011E000686801280AD80020002146F687220024DA
:1011F00008F086FC01210529BED1E0E72968023804
:101200000231C5E9001009EB0600002500F5F06089
:10121000694601AA009504F09BF804460028A8D16D
:1012200009EB060000F5F060CDF8240F4FF4807054
:10123000CDF8280F0DF6247001214FF41042CDF89F
:101240002C5F08F05DFC0221052995D1B7E7B0B508
:1012500090B04CF65B00C0F200007844002400948B
:1012600002904BF6B262C0F200020DF113057A440F
:1012700003A9284640F69513019404F043FB38B1C6
:10128000002000214FF4D54208F03AFC044609E062
:1012900003980121CDE90D500DA84FF410420F9491
:1012A00008F02EFC204610B0B0BD80B584B0C1EB74
:1012B000012040F2E821C0F200014944084400F551
:1012C000F060CDE901020020039001A801214FF454
:1012D000104208F015FC002004B080BD80B584B039
:1012E000C1EB012040F2E821C0F20001494408446A
:1012F00000F51870CDE901020020039001A801213A
:101300004FF4104208F0FCFB002004B080BD70B523
:1013100084B040F20006C0F2000609EB0605044660
:1013200028464FF43A710AF0E5FC002085F8B8022F
:1013300009F8060005F53971204608F03BF930B38D
:1013400009EB060090F8E42200F52F71204608F022
:1013500089F9E0B109EB060140F2E82491F8E422B2
:10136000C0F200044CF6594309EB040041F2F405C5
:10137000C0F200030E26284401F52F717B4400962D
:1013800004F0DAFC68B182B20020002103E0002002
:10139000002146F6872208F0B3FB0446204604B03D
:1013A00070BD09EB04002844019020200290002425
:1013B00001A801214FF41042039408F0A1FBEDE7CE
:1013C00070B540F20006C0F2000609EB06050446BF
:1013D00028464FF43A710AF08DFC05F53971204624
:1013E00008F0E8F800B309EB060090F8E42200F5F5
:1013F0002F71204608F036F9B0B1D4E90110091A6E
:10140000202911D1216809EB0604014404F512706A
:1014100020220AF057FC012009F80600032084F876
:10142000B80200F0B7FE70BD0020002146F687220A
:1014300008F066FB70BD70B582B040F20006C0F2E5
:10144000000609EB0605044628464FF43A710AF0F7
:1014500051FC05F53971204608F0ACF888B309EB6A
:10146000060090F8E42200F52F71204608F0FAF803
:1014700038B3D4E90110091A202922D1216809EBD7
:101480000604014404F5127020220AF01BFC40F20D
:10149000E82094F8E422C0F200004CF634334844CB
:1014A00041F2F401C0F200030E25084404F52F7147
:1014B0007B44009504F040FC58B182B2002000212A
:1014C00003E00020002146F6872208F019FB02B055
:1014D00070BD012009F8060009EB0600042180F820
:1014E000B81200F0CEFE02B070BD70B59CB06C4674
:1014F0002046632163250AF0EFFB40F20001C0F2B1
:101500000001412009EB01068DF80000601C06F186
:10151000080141220AF0D6FB20208DF8420004F198
:10152000430006F1490120220AF0CCFB00201B9069
:1015300019A801214FF41042CDE9194508F0E0FA4D
:101540001CB070BD70B596B06C4620464A210AF0BA
:10155000C3FB40F20000C0F2000009EB000696F861
:10156000B052601C06F51A712A468DF800500AF038
:10157000A9FB96F8B1122819AA1C41700020CDE9E8
:101580001342159013A801214FF4104208F0B8FA45
:1015900016B070BD80B541F25E50C0F20000484404
:1015A00055210AF0A7FB80BD2DE9F04581B041F23D
:1015B0005E5AC0F2000A09EB0A070E4611687C1C4D
:1015C0008046204620220AF07DFB07F121052846AF
:1015D000314632220AF009FC002087F8530001202E
:1015E00087F8548009F80A004BF23100C0F200007D
:1015F000784409F0C5FA4AF6B430C0F200007844E5
:101600002021224609F0BCFA4AF60B40C0F2000045
:101610007844294609F0B4FA97F854104BF2187040
:10162000C0F20000784409F0ABFA01B0BDE8F085E3
:1016300070B582B0054600284FF000004CD00C4633
:10164000002949D041F25E56C0F2000619F80600A2
:10165000B0B109EB0600411C284620220AF050FBDD
:1016600018B309EB0600461C4BF29040C0F2000094
:10167000784420212A462023009609F081FA06E0CA
:101680004BF2A000C0F20000784409F079FA284635
:10169000214600F023F828B14BF24470C0F200005C
:1016A000784416E0002002B070BD09EB060090F807
:1016B000542000F12101216022714AF6CF40C0F28E
:1016C0000000784409F05CFA4BF68010C0F200008C
:1016D000784409F055FA012002B070BD2DE9F041BF
:1016E0004CF60B18C0F20008F8440C464146202284
:1016F00006460AF005FBA8B108F15407002500BF13
:10170000042D1CD03046394620220AF0F9FA013562
:10171000002807F15407F3D1691E0020042938BFBF
:10172000012001E001200025542105FB018101F188
:10173000200291F8531022602171BDE8F0814FF032
:10174000000038BF0120BDE8F081F0B581B000286D
:1017500000F09E800D46002900F0D18004464068CC
:10176000B0F5FF7F08D94BF25B20C0F2000078444F
:1017700009F006FAF92088E016462046294600229C
:1017800007F02EFFD8B12068A1680844A861204660
:10179000142107F004FFD8B11EB32068A1680844E3
:1017A000E8612046202107F0FAFEE0B94BF24750ED
:1017B000C0F20000784409F0E3F9F82065E04BF24C
:1017C0007340C0F20000784409F0DAF9FF205CE0D1
:1017D0004BF2C470C0F20000784409F0D1F9FE2049
:1017E00053E00020E86105F10801204600220026B0
:1017F00007F0F6FEC0B1C5E9046605F128062046EB
:10180000314607F012FFC0B9D6E90001B0F5E97022
:1018100071F1000011D34BF65700C0F2000078447C
:1018200009F0AEF9FC2030E04AF68760C0F2000013
:10183000784409F0A5F9FD2027E02068A168084454
:10184000A96A2862204607F0AAFE68B1286AD5E98D
:101850000A2300F0A1F880B1D4E901126FF006006C
:101860008A4208BF012010E04AF60340C0F200009F
:10187000784409F085F9FB2007E04BF20160C0F2E3
:101880000000784409F07CF9FA2040B201B0F0BDC4
:1018900074467D464BF22C00C0F20000784409F0FB
:1018A0006FF94BF65206C0F200067E44304609F04E
:1018B00067F94BF21E40C0F20000784409F060F96D
:1018C00041F64040C0F2000009EB000738463146BF
:1018D00009220AF0F7F938460AF06AFA0A2239189A
:1018E0003A54002048704AF63B16C0F200067E4487
:1018F0003046212109F066F83046212140E0744647
:101900007D464AF6BE70C0F20000784409F038F90E
:101910004AF2C370C0F20000784409F031F94BF28A
:10192000B230C0F20000784409F02AF941F6404094
:10193000C0F200004E2109F8001009EB00067420E7
:1019400070714C20F070B0705520707020203146BE
:1019500001F8040F7820002788703046CF700AF015
:1019600027FA31180A2232544F704AF6B706C0F2ED
:1019700000067E443046222109F024F83046222118
:1019800009F004F82046294608F0E6FF20462946DB
:1019900008F0C0FF09F04CF8F0B581B0E8B152EAA8
:1019A000030118BF012114D090F90070002F10D44A
:1019B00000270126B11A77EB03014FF0000138BF71
:1019C000012106D28557013647F10007B5F1FF3FE7
:1019D000F0DC81F0010001B0F0BD74467D464AF6AE
:1019E000E260C0F20000784409F0CAF84BF2FC66ED
:1019F000C0F200067E44304609F0C2F84BF2D42013
:101A0000C0F20000784409F0BBF841F64040C0F253
:101A1000000009EB0007384631460A220A260AF080
:101A200051F938460AF0C4F939183E54002048707C
:101A30004AF6E756C0F200067E443046202108F000
:101A4000C1FF3046202108F0A1FF2046294608F0BA
:101A500083FF2046294608F05DFF08F0E9FF80B5C6
:101A600010B1FFF742FD80BD0020002146F685122F
:101A700008F046F880BD2DE9F0418CB090B340F2FB
:101A80000008C0F20008022009F8080009EB08006D
:101A900048210A9190F8E4320DF1280E00F51A71F0
:101AA000202200F5127600250DF12C0C032740F2C0
:101AB0000164CDE90262CDE9041E00F52F72002019
:101AC00021210B950895CDE90047CDF818C0079561
:101AD00007F0F2FEB0B109F80850002000214FF4E1
:101AE000CC420AE040F20000C0F20000002109F8F8
:101AF00000100020002146F6851208F001F80CB015
:101B0000BDE8F0810A994BF2434009EB0804C0F2AA
:101B1000000004F51A72784409F032F80A989DF82A
:101B20002C1084F8B00201F0010084F8B102FFF734
:101B300009FD0CB0BDE8F0812DE9F041ADF6487D1E
:101B400078B340F20008C0F20008022009F808004B
:101B500009EB08004821CDF8281A90F8E432032157
:101B600040F2016200250DF1280C0DF6282E00F53B
:101B70001A76202400F51277CDE9002100F52F72A6
:101B8000002021210A950895CDE90274CDE9046E63
:101B9000CDF818C0079507F08FFE70B109F808500E
:101BA00044E040F20000C0F20000002109F80010FB
:101BB0000020002146F685123CE0DDF8281A4BF2A1
:101BC0008B3009EB0804C0F2000004F51A72784467
:101BD00008F0D6FFDDF8280A9DF8281040F2E82525
:101BE00084F8B00201F00100C0F2000584F8B102EF
:101BF00009EB050041F2F40142180DF628200AA96C
:101C000003F08AFA18B1002009F808000EE000205D
:101C10000021002603F062FB09EB080000F51270BA
:101C2000202103F088FB58B109F80860002000214A
:101C30004FF4CC4207F064FF0DF6487DBDE8F0811B
:101C400009EB050000F5F06009A90AAA099603F05E
:101C50007FFB0028D7D1FFF775FC0DF6487DBDE866
:101C6000F081FF2009F0DDFEB0B584B04CF6885459
:101C7000C0F200047C44204609F012FE41F2B45147
:101C80000078C0F2000109EB010528724BF2F80060
:101C9000C0F20000784449F801004AF61910C0F279
:101CA00000007844686014206872204609F0F8FD4E
:101CB0004078FF2328754AF23B30C0F200004AF614
:101CC0008921C0F2000178447944C5E90301152057
:101CD00068754FF65975CFF6FF754CF2B841C0F2F2
:101CE00000014CF2AA42C0F20002002079447A447A
:101CF000CDE9002102904AF68360C0F200004AF26A
:101D00003011C0F200017D447844794400220395EB
:101D100005F0A9FC04B0B0BD10B584B041F2CC51BF
:101D2000C0F20001152809F8012019D014283DD16E
:101D30004CF6C444C0F200047C44204609F0B0FDD7
:101D4000007841F2B451B0FA80F0C0F200014009CD
:101D500049448DF80F000872204609F0A1FD20E0EB
:101D60004CF69440C0F20000784409F099FD4078A8
:101D7000F0B14CF68244C0F200047C44204609F0E5
:101D80008FFD407841F2B451B0FA80F0C0F200010A
:101D9000400949448DF80F000875204609F080FD80
:101DA00001300DF10F01012209F0AAFD04B010BDB0
:101DB00040F21104C0F200044AF67C20C0F2000098
:101DC000784400904AF2AB10C0F200004AF21921A8
:101DD000C0F200014AF29D62C0F200024AF6A87306
:101DE000C0F200037C44784479447A447B440194F3
:101DF00006F013FA04B010BD10B586B0E0B14CF691
:101E0000F634C0F200047C44204609F049FD4078D5
:101E100041F2B451B0FA80F0C0F2000140094944E7
:101E20008DF817000875204609F03AFD01300DF1D4
:101E30001701012209F064FD41F2CC50C0F200000C
:101E400019F800304FF6E754CFF6FF744CF24631E4
:101E5000C0F200014CF23832C0F200020020794496
:101E60007A44CDE9002102904AF61150C0F20000F8
:101E700049F6BE71C0F200017C44784479440022E6
:101E8000039405F0F0FB06B010BDB0B588B040F289
:101E90000004C0F2000409EB040090F8B80219F83D
:101EA0000410084307D0002009F804000020002196
:101EB00046F685123BE041F2CD55C0F2000509EB34
:101EC00005002B2109F016FF00200790CDE9050041
:101ED000CDE9030009EB0400083003A91422FEF742
:101EE0009AF800B309EB050203A814212B2307F08D
:101EF0009FFD013017D040F23900C0F20000784455
:101F000001904AF2C302C0F200024BF25003C0F249
:101F10000003002409EB05007A447B44002100946F
:101F200005F082FD06E0002000214FF4D54207F0C5
:101F3000E7FD0446204608B0B0BD10B50446FFF7E3
:101F40008EFD0720002C18BF06204FF61351CFF648
:101F5000FF71794405F0C4FF10BD80B50120002158
:101F600000F001F880BD2DE9F04D9EB041F2207ADD
:101F7000C0F2000A0D46074609EB0A001E2109F0CF
:101F8000B9FE41F23E7BC0F2000B09EB0B002B21A6
:101F900009F0B0FE41F26978C0F2000809EB0800D0
:101FA0000A2109F0A7FE40F20004C0F2000409EB88
:101FB000040090F8B812002D4FF0010318BF02235F
:101FC0008B424FF001062DD119F80400012829D1C8
:101FD00005AE30466421049709F07EFE09EB04004B
:101FE000017C002D08BF0321D0E98823CFB2304601
:101FF0006421009707F09EFC002863D005AE3046B0
:1020000009F0D6FE0346F5B109EB0400C768009657
:102010004AF63242C0F2000209EB0A007A441E215D
:10202000019719E0002009F804004AF2A220C0F24A
:10203000000078440022009608F0A2FD0020002154
:1020400046F6851242E04AF2C032C0F2000209EBC5
:102050000A007A441E21009609F0DCFB09EB04001B
:10206000D0F8300209EB0B0214212B2307F0E0FC1F
:10207000013027D041F23C664FF0000CC0F2000660
:102080005DB309EB0400C3684AF24F3209EB08055F
:10209000C0F200027A4428460A2109F0BBFB4AF24A
:1020A0007530C0F20000784449F8060009EB0600DC
:1020B00045604AF69523C0F200034FF0000C012161
:1020C0007B4410E0002000214FF4D54207F018FDBA
:1020D000044620461EB0BDE8F08D49F62773C0F2D5
:1020E00000037B44002109EB06024AF2F226C0F20B
:1020F00000060F017E4402EB0110D65109EB0A07DE
:1021000047604AF2F927C0F200077F4409EB0B064B
:10211000C0E9047641F28C60C0F2000009EB0007D0
:1021200002313972012187F80BC049F80020049A66
:10213000B97340F22911C0F2000179444FF0000454
:1021400072B1CDE90044039149F68762C0F2000202
:1021500009EB00017A440020029405F053FCB8E733
:102160000094029149F66B62C0F2000209EB000193
:102170007A440020019405F075FBAAE780B50020A1
:102180000021FFF7F0FE80BD80B500200121FFF7A0
:10219000EAFE80BD10B584B041F2F854C0F20004EC
:1021A00009EB0400412109F0A5FD40F20000C0F256
:1021B000000009EB000191F8B812032941D119F888
:1021C000001001293DD1484409EB040200F51270CA
:1021D0002021412307F02CFC01303AD04AF2600163
:1021E00041F23C60C0F20001C0F20000794441F2CB
:1021F0008C6249F80010484409EB0401C0F2000267
:10220000416009EB020100240123CC720B7249F8F2
:1022100002008B7340F24700C0F200007844CDE921
:102220000044039049F6A752C0F200024AF2B913E3
:10223000C0F200037A447B440020029405F0E2FBE4
:102240000EE0002109F800100020002146F685125A
:1022500003E0002000214FF4D54207F051FC044672
:10226000204604B010BD10B50446FFF704FC4FF63D
:10227000EB11CFF6FF7184F00100794405F030FED8
:1022800010BD10B584B041F2F854C0F2000409EB5F
:102290000400412109F02EFD40F20000C0F20000D0
:1022A00009EB000191F8B812042941D119F8001086
:1022B00001293DD1484409EB040200F512702021A8
:1022C000412307F0B5FB01303AD049F6727141F273
:1022D0003C60C0F20001C0F20000794441F28C621F
:1022E00049F80010484409EB0401C0F200024160C3
:1022F00009EB020100240123CC720B7249F80200A1
:102300008B7340F24700C0F200007844CDE90044EE
:10231000039049F6B942C0F200024AF21F53C0F2DC
:1023200000037A447B440020029405F06BFB0EE02E
:10233000002109F800100020002146F6851203E074
:10234000002000214FF4D54207F0DAFB0446204676
:1023500004B010BD10B50446FFF7EEFB4FF6FD01CB
:10236000CFF6FF7184F00100794405F0B9FD10BD8E
:102370002DE9F04D8AB041F2A065C0F2000509EBED
:1023800005002B2109F0B6FC41F2CB64C0F2000439
:1023900009EB04002B2109F0ADFC41F2F668C0F214
:1023A000000809EB08001E2109F0A4FC41F2147B8F
:1023B000C0F2000B09EB0B000C2109F09BFC41F271
:1023C000F850C0F200004844412109F093FC40F26B
:1023D000000AC0F2000A09EB0A0090F8B8020528CA
:1023E00058D119F80A00012854D1FEF7D5FB01781D
:1023F00041F23C67C0F2000731B9012118296CD0C5
:10240000425C0131002AF9D00026FEF7BEFB09EB41
:10241000050214212B2307F00BFB01300ED04AF6E6
:10242000EC03C0F2000309EB070032017B4400EB30
:102430000611835009EB050001364860FEF7C2FB28
:1024400098B3FEF7AFFB09EB040214212B2307F02E
:10245000EFFA01300ED049F69F73C0F2000309EB8A
:10246000070032017B4400EB0611835009EB0400A6
:1024700001364860FEF79EFB0178002940F00A8192
:10248000012100BF182900F08480425C0131002A3C
:10249000F8D0FFE0002009F80A000020002146F6ED
:1024A000851207F02DFB044632E141F2F850C0F2EC
:1024B000000009EB000409EB0A0000F5127020216E
:1024C0002246412307F0B4FA013000F0FD804AF6BD
:1024D000B230C0F200007844EEE01730002408214A
:1024E000002500BF2A0242EA146510F8012F0139C5
:1024F00042EA0424F6D154EA050000F096804FF039
:1025000000080DF1130600BF204629460A220023C9
:1025100009F0E6FB00EB8002A4EB4202B4F10A03EF
:1025200042F0300208F1010775F1000306F80820B7
:1025300005D3B8F1130FB84604460D46E4D37D1E0B
:1025400041F2F66841F2CB640A2DC0F20008C0F2F5
:10255000000400F28B8009EB0B00411E731E3A460B
:10256000284600BF9E5C013801F8016F461CA2F1AD
:102570000102F7D109EB0B0000260B2DC65541F2E5
:102580003C6741F2A065C0F20007C0F200055FD3CE
:102590003BE7173000240821002500BF2A0242EA49
:1025A000146510F8012F013942EA0424F6D154EAE7
:1025B000050065D0C346BA4600270DF1130800BFD9
:1025C000204629460A22002309F08AFB00EB8002FC
:1025D000A4EB42020A3C42F0300207F1010375F11C
:1025E000000508F8072004D3132F1F4604460D46A4
:1025F000E6D35D1E1C2D4BD809EB0B00411EA8F144
:1026000001071A46284600BFBC5C013801F8014F9B
:10261000441CA2F10102F7D1D84609EB0B000021BE
:102620001D2D5746C15435D23CE0302009F80B002F
:1026300009EB0B00002141F2F66841F2CB6441F254
:10264000A0654170C0F20008C0F20004C0F20005AD
:102650004AF24620C0F20000784449F8070009EB2E
:10266000070009EB0B0141600126CEE641F23C6711
:1026700041F2A0650026C0F20007C0F20005C4E6E2
:10268000302009F8080009EB08000021417009E03A
:102690005746D846FEF78EFA09EB080220211E2382
:1026A00007F0C6F919F8080070B149F65050C0F2A9
:1026B000000009EB0804784409EB070101EB06125E
:1026C00033010136C850546041F28C60C0F2000002
:1026D00009EB070209EB0001002449F80020012062
:1026E000CC720E7288734FF66340CFF6FF70784459
:1026F0000094029049F6D702C0F2000249F6BC43AA
:10270000C0F200037A447B440020019405F0AAF84B
:1027100020460AB0BDE8F08D80B5CC2109F0DCFA86
:1027200080BD00002DE9F04581B0D0F8C8C09046CA
:1027300062448246A82A0E463CD29046C44527D21F
:102740004FEACC01721E00BF12F8010F01F03803EE
:10275000C3F1200620FA06F6B3F1200758BF00FAAD
:1027600007F600FA03F02CF007030AEB030758BF43
:1027700000207D685AF803400CF1010C6E40604067
:10278000E04501F108014AF803007E60DCD1C4464F
:10279000CAF8C8C001B0BDE8F08500BF08EB0C0066
:1027A000A0F1A808504600F027FBB8F1A80F4FF0A1
:1027B000000CC3D3BCF1A70FF0D84FEACC01721EB6
:1027C000634600BF12F8016F01F03805C5F1200023
:1027D000B5F1200726FA00F058BF06FA07F006FA0E
:1027E00005F723F007060AEB060558BF00276C68BB
:1027F0005AF806E00133604087EA0E07A82B01F182
:1028000008014AF806706860DCD1561CC6E710B5AE
:10281000D0F8C810382202EAC1024FF01F0CC2F1F2
:1028200020032CFA03F321F00701B2F1200E58BF68
:102830000CFA0EF30CFA02F200EB010C58BF002266
:10284000DCF804E0445883EA0E0362404250CCF8BE
:102850000430D0F8A41081F00041C0F8A410A821E1
:10286000C0F8C81010BD0000F0B581B00E46D2F817
:10287000C810174686B3054604E000BF5D1CBCEBDC
:10288000010629D0A82903D1384600F0B5FA002165
:10289000A72901EB060C98BF6145F0D2CA006B1E58
:1028A00021F00706BD196D68BE5902F03800C0F16D
:1028B0002004C64005FA04F42643203858BF25FA00
:1028C00000F603F8016FA62901F10101D6D8614590
:1028D00002F10802E4D3D1E7C7F8C81001B0F0BD97
:1028E0002DE9F04D82B00C46C8211D4616468346A0
:1028F00009F0F2F9A646A542CDE900652DD2DDF832
:102900000480DDF828C0B8F1000F6FD0DDF800A01A
:10291000002100221AF8023001F03807C7F1200523
:1029200023FA05F5B7F1200658BF03FA06F503FAB6
:1029300007F322F007070BEB070658BF0023746864
:102940005BF80700013265405840904501F10801ED
:102950004BF807007560DDD14AE04FEADE004FF02A
:10296000010AA6F10108012888BF4FEADE0A0EE03D
:102970000098019D704400905846A5EB0E057446E2
:1029800000F03AFAA646A542A0440195B7D3BEF19D
:10299000080FEDD30020C446002361460022002624
:1029A00011F8015FC3F1200725FA07F7B3F12004FE
:1029B00058BF05FA04F705FA03F503F1080358BFF9
:1029C00000253E43402B42EA0502E9D15BF8307016
:1029D0000BEBC0014B687A404BF83020013073405C
:1029E00050450CF1080C4B60D6D1C1E74FF0000800
:1029F000382000EAC800C0F12002B0F120012CFA12
:102A000002F258BF0CFA01F20CFA00F028F00701AC
:102A100058BF00205BF801600BEB01035F6870405A
:102A20004BF80100AEF101007A4020F007005A6037
:102A30005844416881F00041416002B0BDE8F08D2A
:102A40002DE9F04D002908BFBDE8F08D934688467A
:102A5000A0F1010A584600F0CFF90020564600BF09
:102A60000BEBC0015BF830204B680025314600BFFE
:102A7000C5F1200422FA05F703FA04F42743B5F15F
:102A8000200405F1080558BF23FA04F7402D01F88A
:102A9000017FEDD10130152806F10806E0D1B8F12B
:102AA00001080AF1A80AD5D1BDE8F08D80B5CC2186
:102AB00009F012F980BD00002DE9F04581B0D0F891
:102AC000C8C0904662448246882A0E463CD2904650
:102AD000C44527D24FEACC01721E00BF12F8010F85
:102AE00001F03803C3F1200620FA06F6B3F12007FF
:102AF00058BF00FA07F600FA03F02CF007030AEBC0
:102B0000030758BF00207D685AF803400CF1010C00
:102B10006E406040E04501F108014AF803007E6024
:102B2000DCD1C446CAF8C8C001B0BDE8F08500BF1A
:102B300008EB0C00A0F18808504600F05DF9B8F1F0
:102B4000880F4FF0000CC3D3BCF1870FF0D84FEAC9
:102B5000CC01721E634600BF12F8016F01F0380508
:102B6000C5F12000B5F1200726FA00F058BF06FA9B
:102B700007F006FA05F723F007060AEB060558BF2B
:102B800000276C685AF806E00133604087EA0E07B8
:102B9000882B01F108014AF806706860DCD1561CE8
:102BA000C6E710B5D0F8C810382202EAC1024FF0CB
:102BB0001F0CC2F120032CFA03F321F00701B2F13C
:102BC000200E58BF0CFA0EF30CFA02F200EB010CC7
:102BD00058BF0022DCF804E0445883EA0E03624048
:102BE0004250CCF80430D0F8841081F00041C0F895
:102BF00084108821C0F8C81010BD0000F0B581B065
:102C00000E46D2F8C810174686B3054604E000BF4A
:102C10005D1CBCEB010629D0882903D1384600F0A1
:102C2000EBF80021872901EB060C98BF6145F0D233
:102C3000CA006B1E21F00706BD196D68BE5902F06F
:102C40003800C0F12004C64005FA04F426432038B9
:102C500058BF25FA00F603F8016F862901F101013A
:102C6000D6D8614502F10802E4D3D1E7C7F8C8100D
:102C700001B0F0BD2DE9F04D002908BFBDE8F08D91
:102C800093468846A0F1010A584600F0B5F80020A6
:102C9000564600BF0BEBC0015BF830204B680025A7
:102CA000314600BFC5F1200422FA05F703FA04F407
:102CB0002743B5F1200405F1080558BF23FA04F7AE
:102CC000402D01F8017FEDD10130112806F10806F1
:102CD000E0D1B8F101080AF1880AD5D1BDE8F08D3C
:102CE0002DE9F04DB8B002901F200DF1100B0C46ED
:102CF0000090584688218825FFF7F2FD4FF2F10039
:102D0000CFF2F000A4FB0001882C4FEAD1103695D9
:102D1000019403902ED30298DDF80CA0A0F10108D5
:102D2000584600F069F80020454600BF0BEBC00193
:102D30005BF830204B680026294600BFC6F120040E
:102D400022FA06F703FA04F42743B6F1200406F149
:102D5000080658BF23FA04F7402E01F8017FEDD191
:102D60000130112805F10805E0D1BAF1010A08F196
:102D70008808D5D10398019900EB0010A1EBC0069B
:102D8000B6B3029AC1003698551807E0872800EBC1
:102D9000060198BF884209D30E1A29D08828F5D198
:102DA000584600F029F80020F0E700BFC2006B1E73
:102DB00020F007070BEB070676685BF8077002F058
:102DC0003805C5F12004EF4006FA04F42743203DFE
:102DD00058BF26FA05F703F8017F862800F10100A5
:102DE00003D8884202F10802E2D35D1C0E1AD5D145
:102DF00038B0BDE8F08D00002DE9F04DC1B001689C
:102E000007914168149181683191C16830910169DD
:102E100034914169359181692B91C1692C91016A85
:102E20003291416A3391816A2E91C16A2D914BF2A0
:102E3000C631C0F20001794410390D91D0E90CC1BE
:102E4000D0E92A531B91816BD0E92EAB2891C16B3D
:102E5000D0E930472791016C00902F91416C2A9165
:102E6000816C2091C16C1F91016D1C91416D179176
:102E7000816D2491C16D1D91016E0A91416E099180
:102E8000816E2291C16E2191016F2691416F29912E
:102E9000816F2591C16F2391D0F880101591D0F8E2
:102EA00084100F91D0F888101E91D0F88C101A91D0
:102EB000D0F890101391D0F894101191D0F8981088
:102EC0001991D0F89C101891D0F8A0101691D0F854
:102ED000A4101091D0F8B0101291D0F8B4106FF087
:102EE00001000E91CDE9050A0F981D995840484000
:102EF0001599249A694051401B9A81EA0C0150406F
:102F0000309ACDE903535040319A229B5140139A95
:102F1000219E82EA0A025A40119B2A9D83EA0B03F2
:102F200073406B402F9D2B9E6A40CDF8ECC082EA27
:102F3000060C2C9A299E83EA02054FEA4C0343EAC9
:102F4000D5734B40420039936B0042EAD17249007D
:102F500043EADC7341EAD07158403E901998269BB1
:102F600060405840189BCDF820B07B4073401F9EB6
:102F7000DDF824A07340209EDDF828807040329E4A
:102F8000CDE90B477040339E414073405A40409119
:102F90005900369241EAD07B1E99129A400040EACD
:102FA000D3704A401A990E9B82EA08024B40279937
:102FB00083EA0A034B402899169F4A403499DDF86A
:102FC0001CE04A40359950404B405C0044EAD271C5
:102FD0003F90500083EA0B0240EAD3703A92239A62
:102FE000109B1C9C5A40179B5A40259B7B402E9F50
:102FF00063407B402D9F83EA0E037A40149F83EA4F
:10300000000B7A4082EA01045900500041EAD27173
:1030100040EAD3708CEA010C3B9980EA05061B98C4
:1030200081EA0B0160400A0342EA1052000340EAC1
:1030300011573E98029280EA0A023998CDF8F0B012
:1030400080EA0803D902DDF8E8B0119841EA525548
:10305000D20242EA535A8BEA000213983F993796FC
:1030600081EA00080B990C984FEA485381EA0C0159
:1030700043EAD223520570408E033D9442EAD8249D
:1030800046EA90488003019740EA914040992AEA35
:1030900007060D9F81EA0E0157F8102F4E4072402F
:1030A000CDF8E0C00792DDF8D8C0149ADDF808E04A
:1030B0000D9782EA0C0225EA0E067F68564077409B
:1030C00028EA0306149786EA0A070C9721EA0807FC
:1030D00023EA0A067B403B9320EA04036B400B93F0
:1030E00024EA0503019D22EA00072EEA020225EAEE
:1030F00001015040139088EA010011902B983F99EC
:1031000083EA0E0348402C99099381EA0B010A07D0
:1031100042EA1012000740EA11102B9037981F99CD
:10312000029241403898209A409B4240100540EA64
:10313000113B090541EA12301C9A17996740534028
:103140001B9785EA060781EA0C01DA000A9742EA32
:103150005172C900DDF8F4E00F9F41EA5371DDF8C8
:10316000F0A0159B87EA0E0783EA0A037E0346EA6E
:10317000D3465B03DDF8F8C00E9C43EAD743DDF885
:10318000E480129F8CEA0405209087EA08076C0708
:103190002B9844EAD7047F0747EAD50720EA0405BD
:1031A0007540129526EA020524EA0606564022EAF0
:1031B0000B02424015928BEA0502029D2C9225EAF1
:1031C00007025A400E9223EA010227EA03034B400A
:1031D0001793209B2BEA0000994369400F9183EAE3
:1031E00002012B9123EA0501794020916040319939
:1031F0001F90309881EA0A0180EA0E004A0042EAF4
:10320000D072400040EAD17A2799289881EA0C01CF
:10321000029280EA08008A0142EA9063800140EA53
:10322000916B22983F993A9A48402199DDF8DCE069
:103230004A40510641EAD011400640EAD21218989D
:10324000DDF8E0808EEA000719981C9688EA0006EF
:10325000300240EA17603F0247EA1667169E409D1B
:10326000DDF8D8C0109C6E408CEA0405AC0444EA3A
:103270009634B60446EA95362AEA04057D4022953E
:1032800027EA010524EA07074F40994381EA0A012A
:10329000289185EA0301029D199123EA0A0125EA92
:1032A00006034340219320EA020326EA000050402F
:1032B000309022EA0B006840279083EA0B001890B8
:1032C0002BEA05007040169081EA040032991090B4
:1032D000339881EA080180EA0E00CA0642EA5018D3
:1032E000C00640EA511A2E99409A2D98514080EA22
:1032F0000C000A0142EA107B000140EA1170249997
:103300003C9A3D9B51401D9A319753409A0242EAA4
:10331000915289021A9F3E9E41EA93511E9BDDF80D
:10332000E4C0774083EA0C03FE0346EA5346DB031E
:1033300043EA5743069F3F9DDDF8E8E0089C6F4055
:103340008EEA04052C0644EA17243F0647EA1527AF
:103350002AEA07057540339526EA020527EA06069C
:10336000564022EA0B021E9682EA0A0228EA040666
:10337000089285EA0B0286EA030523EA010624EA9D
:1033800003032E922BEA0A024B40814386EA000B8C
:1033900020EA080081EA080160400691249082EA50
:1033A000070035993E9A1D903498514080EA0C00F0
:1033B0008A0742EA9008800740EA910C2A983F9ACF
:1033C0008EEA00012F981A934240D00540EA512E10
:1033D000C90541EA52212998379A389B42402698DC
:1033E00032954340DD0145EA5264D20142EA53621C
:1033F0002398369B3D9F83EA00052598409BCDF896
:1034000008B083EA0006730243EAD5536D0245EA29
:10341000D65603983C9D454004987840870047EA7B
:103420009577AD0045EA907028EA000585EA060A1E
:1034300026EA020520EA060656408A4382EA080286
:1034400029924D4021EA08022CEA070181EA03088B
:1034500023EA040127EA030363402D9324EA0E03C1
:1034600081EA0E042EEA0C0183EA0C0387EA010EBE
:1034700080EA020C0A982C99269381EA00020998A6
:103480002B9982EA0B0281EA00032E98219943408E
:1034900019982F964340189883EA040742401298DF
:1034A00082EA050681EA00020E982299039581EAD4
:1034B00000031B9883EA080383EA00053B9882EA2D
:1034C0000A0242403298049482EA000333985C0076
:1034D00085EA000244EAD27484EA0600540044EA11
:1034E000D3743F9084EA07007D003C90139845EA2E
:1034F000D675760046EAD77680EA0E0710981A99B4
:1035000047401198CDF8D0C080EA0C041698DDF839
:10351000C0B044401F98DDF8C4C044402098CDF8A6
:10352000D4E047401D98CDF88C8047402498DDF8C2
:103530005080444084EA0600369087EA05004090B7
:103540001C98660080EA01052F981E99454017983F
:1035500046EAD7767F0047EAD47780EA01042D98BF
:10356000CDF894A044400B9844400C9884EA0C0495
:10357000454085EA0B05690087EA040041EAD471F9
:10358000399067000898289C86EA050E80EA0406B0
:103590000F98279C4640069847EAD57780EA0405AD
:1035A0001598CDF8F8E045402998454026984640C2
:1035B000079886EA0806454085EA0104690041EA61
:1035C000D67186EA0700770081EA03062B993A90C4
:1035D00041402C9847EAD577574084EA000213030C
:1035E00043EA115A090341EA12502A903C983D944B
:1035F00080EA0C013F98359B80EA0B02D40244EA32
:103600005150C90241EA525CDDF8E4B0339A329974
:103610008BEA020581EA0E016A0542EAD1224905D8
:1036200041EAD52534993796714087EA03060D9C07
:103630003897B703409B47EA914E8903E76841EA10
:10364000964188EA0306774020EA0A037B401493F8
:10365000A368DDF8D880079CCDF804A0DDF8A8A009
:1036600084EA08077B402CEA0A04634007932EEAA9
:1036700002034340359326EA0E0322EA00005A4033
:1036800027EA01036B402B9353462C9221EA050253
:10369000019B82EA0C02349225EA0C02584082EA2D
:1036A0000A02309023EA060031922AEA070280EAF1
:1036B0000E00339081EA02003B993E9A32901B98AB
:1036C000514080EA0B000A0742EA101B000740EA5B
:1036D000111001901F983799389A484020993F9EC1
:1036E00051400A0542EA103A000540EA113528998E
:1036F000409A2798514080EA0800CA0042EA507474
:10370000C00040EA517302993D9ADDF8E8802E9896
:10371000514080EA08004A0342EAD04C40032F9A05
:1037200040EAD140DDF8F0E02D9986EA020781EA0F
:103730000E017A0742EAD102490741EAD7012BEA92
:10374000010747402F9720EA030721EA000058406D
:10375000289023EA050080EA0B002E9085EA0700F6
:103760003B9025EA0B00019D22EA0C0725EA0203A3
:1037700083EA0C032A932CEA040383EA0A031B93CB
:103780002AEA05035A401F9248400A993D9A209020
:103790000998514080EA08004A0042EAD07B400084
:1037A00040EAD170179902901C9881EA0E01674097
:1037B00070408A01279724EA0A0742EA906A80014A
:1037C00040EA916221983E99399B48402299DDF860
:1037D000DC8059404B0643EAD013400640EAD11042
:1037E0002499DDF8E0C088EA01041D996F408CEA55
:1037F0000105290241EA1461240244EA1566299C64
:10380000DDF8D8E02D978EEA0405269C409F67409E
:10381000BC0444EA9534AD0445EA97352BEA050724
:103820007740229726EA000725EA0606464090439D
:103830000A9680EA0B00029E1C9087EA0200249000
:1038400022EA0B0026EA04024A40219221EA0302FE
:1038500024EA01015940099123EA0A0171401791B4
:1038600082EA0A011D912AEA060161402991684015
:1038700011992690139881EA080180EA0C00CA0683
:1038800042EA5018C00640EA511B0F9840993A9BF3
:10389000484015993F9C81EA0E010A0142EA107ED8
:1038A000000140EA117C18983D99DDF8E4A04840F9
:1038B000199959408B0243EA9053800240EA915291
:1038C0001A993C984C401E9980EA0105E90341EAA7
:1038D0005441E40344EA5546239C3E988AEA040591
:1038E000259C80EA04073C0644EA15242D0645EA97
:1038F000172528EA05077740139726EA020725EAE5
:103900000606564022EA0C002BEA04024A401192B5
:1039100021EA030224EA010159401A9123EA0E0127
:1039200080EA080081EA0B01259087EA0C002391C8
:1039300082EA0E0115902CEA08000F912EEA0B0185
:1039400061406840189119900C983F993C9A484002
:103950000B99379B51408A0742EA900E800740EA54
:10396000910C12993E9A0E98514080EA0A00CA05BD
:1039700042EA5028C00540EA5122109838991E9614
:1039800048401699369C5940CB0143EA5063C00128
:1039900040EA5166089840993A9D4840069961402E
:1039A0004C0244EAD057400240EAD15103983D9C72
:1039B000444004984540A80040EA9470A40044EABA
:1039C00095742EEA040585EA010A21EA060524EA2F
:1039D00001017140129126EA020181EA0E0116915D
:1039E000554022EA0E012CEA000282EA070B27EA80
:1039F000030220EA070783EA070623EA080383EAAB
:103A00000C03109382EA080328EA0C0280EA0207FA
:103A10000598DDF8ECC00230162884EA01040E9601
:103A2000FFF460AA00980799C0E930470160149933
:103A3000C0F8AC304160319981603099C1603499EF
:103A40000161359941612B9981612C99C16132994C
:103A50000162339941622E9981622D99C0E90B1C54
:103A60001B994163289981632799C1632F99016448
:103A70002A994164209981641F99C1641C99016548
:103A800017994165249981651D99C1650A99016657
:103A900009994166229981662199C1662699016733
:103AA00029994167259981672399C1671599C0F8BC
:103AB00080100F99C0F884101E99C0F888101A99C8
:103AC000C0F88C101399C0F890101199C0F8941098
:103AD0001999C0F898101899C0F89C101699C0F858
:103AE000A0101099C0E929151299C0F8B0100E99CC
:103AF000B43080E8020C41B0BDE8F08D80B50621FD
:103B0000202206F0E0FE80BD80B506F0E6FE80BD16
:103B100080B506F0D3FE80BD002804BF4FF0FF3013
:103B20007047B0B52C21044600F1300508F0D4F8F8
:103B30002846FFF7E3FF0020C4E97E00B0BD80B552
:103B4000034600284FF0FF3018BF002900D180BD88
:103B5000986A00281CBF6FF0010080BD03F130009F
:103B600092B2FFF7D1FF002080BD10B588B10446A6
:103B7000806A00281CBF6FF0010010BD04F1300006
:103B80002146FFF7C5FF0120A0620020C4E97E00A6
:103B900010BD4FF0FF3010BD2DE9F04DF8B00646D6
:103BA00000284FF0FF3000F08A800C46002900F01A
:103BB0008680B06AC0B1D6E97E011746814218D925
:103BC0000D1AAB463044BD4288BFBB4600F5EC71D0
:103BD00020465A4608F076F8D6F8F801BD42584417
:103BE000C6F8F80107D369E06FF0010078B0BDE8CE
:103BF000F08D4FF0000BBB4503975FD206F5EC70DC
:103C00006EAF009007F11F0004AD029001941AE01E
:103C10002846009D2946FFF77BFF019C294604EBBF
:103C20000B004246554608F04DF82020BB46D6E929
:103C30000812C6E97E80481C42F10001BB456EAF08
:103C4000C6E908013AD23146AA463CC938463CC0CA
:103C500091E83C003CC0D6E90801029B382200BF35
:103C6000C2F1200420FA02F501FA04F42543B2F16E
:103C70002004A2F1080258BF21FA04F512F1080449
:103C800003F8015FECD150465546FFF737FF504629
:103C900039462822FFF738FF039FA7EB0B08B8F13E
:103CA0001F0FB5D9019C284604EB0B01FFF730FF2D
:103CB0000BF1200B4FF000080020B8E7002078B08F
:103CC000BDE8F08D80B500F5126C4FF0000E04E0F9
:103CD0000EF1010EBEF5807F0AD051F82E000028AB
:103CE000F6D018680CF800E0186801301860EFE7AB
:103CF000186802EB0C0181F8500080BD0A684F2A59
:103D000088BF704700F51260002300BF83540A6823
:103D10000132502A0A60F9D3704700002DE9F041C2
:103D20000D464421804607F0D7FF002201230020E2
:103D300000210026002403E00134B4F5807F11D077
:103D400055F82470002FF7D008F8064055F8247075
:103D50000136013704BF11431843520042EAD372BF
:103D60005B00E9E708F13B02002300BFC3F1200636
:103D700020FA03F701FA06F63743B3F1200603F100
:103D8000080358BF21FA06F7402B02F8017FEDD156
:103D9000BDE8F0812DE9F04188464FF4806104468A
:103DA00007F09AFF08F13B0200230020002100BF2A
:103DB00012F8015FC3F12007B3F1200625FA07F7D7
:103DC00058BF05FA06F705FA03F603F1080358BFD2
:103DD00000263943402B40EA0600E9D1A8F1010250
:103DE000272300BFC6074FF0FF3612F8017F08BF38
:103DF00001265FEA51014FEA3000013B44F8276099
:103E0000F0D1BDE8F08100002DE9F04D84B00D4601
:103E10004FF480611446019007F05EFF05F13B000E
:103E200000214FF000084FF0000B029510F8012F11
:103E3000C1F1200722FA07F7B1F1200358BF02FAB7
:103E400003F702FA01F201F1080158BF00224BEA20
:103E5000070B402948EA0208E8D1002109E000BF29
:103E600003995FEA5B0B01F101014FEA380827294A
:103E700050D002980391465C5FEAC870C6F580771F
:103E800026D10198B24600EB860600252046294639
:103E900000F043F856F82510084446F8250001358F
:103EA000AF42F3D1BAF1000FDAD0A6F5806500BFBA
:103EB0002046394600F031F855F82710FF2FA1EBC6
:103EC000000045F8270007F10107F1D3C8E700BF5C
:103ED0000198002500EB860A2046294600F01DF8CF
:103EE0005AF82510081A4AF825000135AF42F3D1D7
:103EF000002EB5D0AAF580652046394600F00DF8B1
:103F000055F82710FF2F084445F8270007F101074F
:103F1000F2D3A5E704B0BDE8F08DCA080D2302FB7B
:103F2000030001F0070102290DDD042915DC032936
:103F30001FD004292ED1C2798179037A100140EA79
:103F40001110190332E0E1B1012928D0022921D151
:103F5000C17800798908800128E0052915D0062953
:103F600018D1827A417AC37A900040EA911099027E
:103F70001CE0427901798379500040EAD11059025E
:103F800014E042780178100210E0017A407A490882
:103F9000C0010BE0C17A007BC908400106E08278CD
:103FA0004178C378D00040EA5110D90208436FF33A
:103FB0005F30C0F5805070472DE9F04D84B00D465C
:103FC0004FF480611446019007F086FE05F13B0036
:103FD00000214FF0000A4FF0000B029510F8012F5E
:103FE000C1F1200722FA07F7B1F1200358BF02FA06
:103FF00003F702FA01F201F1080158BF00224BEA6F
:10400000070B40294AEA020AE8D14EF2000CC0F23E
:104010007F0C4CF00040002140F0FF4E0AE000BF52
:1040200003995FEA5B0B01F101014FEA3A0A272984
:1040300000F0E18002980391425C5FEACA70C2F529
:10404000807731D10198904600EB8205002210E084
:104050004878062380080226895D9940084355F870
:1040600022100CEA4030084445F822000132974201
:1040700052D0900800EB800102F003000228214496
:1040800006D00128E4D048B9087808230126E3E7E0
:104090008878042300090326DEE700BFC8780223DE
:1040A00080090426D8E700BF0198164600EB820578
:1040B000002214E0487802234FEA90080620C95CE9
:1040C00001FA00F000F47F7055F8221040EA080071
:1040D00000FB0E1045F822000132974256D090089E
:1040E00000EB800102F003000228214408D00128DF
:1040F000E0D058B991F8008008200123DFE700BF25
:10410000887803234FEA10180420D8E7C8780423DE
:104110004FEA90180220D2E7B8F1000F3FF480AFC9
:10412000A5F5806216E000BF4878022385080620C6
:10413000C95CFF2F01FA00F000F47F7052F82710DD
:1041400040EA050000FB0E1042F8270007F10107C6
:10415000BFF466AFB80800EB800107F00300022847
:10416000214407D00128DFD050B90D780820012361
:10417000DEE700BF8878032305090420D8E700BFE5
:10418000C878042385090220D2E700BF002E3FF43F
:1041900047AFA5F5806214E0487806238008022521
:1041A000495DFF2F01FA03F140EA010052F82710A0
:1041B0000CEA4030084442F8270007F10107BFF439
:1041C0002FAFB80800EB800107F00300022821445C
:1041D00006D00128E0D048B9087808230125DFE798
:1041E0008878042300090325DAE700BFC878022392
:1041F00080090425D4E704B0BDE8F08DB0B50546CC
:1042000008460C4600F0D2FB204600F0DBFBA81E5F
:10421000002100BF54F8212004EB8103827054F880
:1042200021200131120A00F8032F5A88B1F5807F4E
:104230004270EFD1B0BD00000239002291F802C0F7
:1042400040F822C011F8033F4CEA032C40F822C08A
:104250004B784CEA034340F822300132B2F5807FBC
:10426000ECD1704770B504380239043A4FF48073CA
:1042700011F803CF52F8045F11F801EC4E784EEAC2
:104280000C2444EA0646761B013B40F8046FEFD14C
:1042900070BD000080B5A1F1040E04384FF48072A7
:1042A00042F60B4C5EF8043F7F33DB1103FB0CF34B
:1042B00003F500010916B3F12E5FA8BF0021013AF2
:1042C00040F8041FEED180BD2DE9F04148F60048CA
:1042D00041F6FF744FF20005043904384FF4807240
:1042E00042F60B4C6FF0010ECFF6FE78CFF68074DD
:1042F000C0F23F0551F8046F06F17F07FF1107FB7D
:104300000CF707F50003B7F12E5F0EEAE353B8BFD1
:1043100003FB0866AE42C8BF2644013A40F8046F6A
:10432000E8D1BDE8F08180B502EB420201EB421119
:10433000803101F06DFC80BD80B502EB420201EBE3
:10434000421101F5007101F063FC80BD2DE9F04DD3
:1043500084B000910C990646084611461A4601F0B1
:10436000B2FC4EF2000B00250DF10707C0F27F0BE7
:1043700002E000BF002848D00C9A38460921FEF719
:1043800073FAB5F5807F4FF0000038BF0120FF2D94
:10439000F0D800243819395D4278807841EA02214A
:1043A00000F07F0041EA0040584520D8009951F8BC
:1043B000251081FB000100F033FE05EB450806EBFC
:1043C000080A16F808109AF801209AF8023041EA13
:1043D000022141EA0341084400F041FE06F80800CA
:1043E000010A000C01358AF801108AF80200B5F5BF
:1043F000807F4FF0000038BF0120052CBAD8B5F5FA
:10440000807F04F10304C5D3B4E704B0BDE8F08DA8
:104410002DE9F04D84B0804618469B4601F06FFCB4
:104420004CF23F0A6FF00F07C0F2030A68460921F9
:104430005A4608EB0706FEF7E1FB9DF807009DF8DA
:10444000061080009DF8082040EA911040EA822C76
:104450009DF805209DF80430120142EA131201F084
:104460003F019DF8025042EA01319A039DF8003065
:104470009DF801409DF8030042EA950202EA0A0213
:1044800065F3114342EA801043EA04221037C2F573
:104490000032C0F50030C1F50031CCF50033B7F57E
:1044A0007C7F0092019002910393C6E90420B161E0
:1044B000F361BBD104B0BDE8F08D00002DE9F04DF3
:1044C00084B0DDF830800C460646404611461A4658
:1044D00001F015FC4CF23F0A00256F46C0F2030ABA
:1044E000384609214246FEF789FB9DF807009DF8F2
:1044F000061080009DF8082040EA911040EA822CC6
:104500009DF805209DF80430120142EA131201F0D3
:104510003F0142EA013E9DF802109A039DF8030014
:1045200042EA910202EA0A029DF8003042EA801053
:104530009DF801B0C0F5003061F311430190CEF554
:10454000003043EA0B210290CCF50030C1F5003178
:1045500003900020009100BF57F8201054F820204D
:10456000114446F8201001300428F5D101351036E9
:10457000402D04F11004B3D104B0BDE8F08D00006B
:10458000F0B54FF6FF7CC2F67F3CA0F1040E023A74
:10459000043900204FF4807342F60B4412F8035F95
:1045A00012F8016C577846EA052545EA074551F8A7
:1045B000046F7F352E44F6116643ED0906F50007BA
:1045C00065433F16664505F50006C8BF0027360E51
:1045D000654588BF0026BD1B18BF01254EF8045F46
:1045E000013B2844DAD1F0BD2DE9F04103F5126E0C
:1045F00002F150088446002A1ABF02EB0E0090F820
:104600004F4000241EF808500120502D98BFAC42A6
:1046100001D9BDE8F0811EF808500020AC424FF0EF
:1046200000071CD21D1900260CE000BFAA1992F841
:104630002029771C0CF806201EF80820E61996425F
:104640003E460CD2A719A742F0D9AF1997F81F29F7
:1046500097F820799742E9D80120BDE8F0810F60F2
:1046600093F87319502938BF01204F29D1D81EF86B
:104670000120002A18BFBDE8F08103F6211000BF19
:104680000A464F2904D0815C002902F10101F7D0CC
:1046900000204F2A38BF0120BDE8F0812DE9F0410C
:1046A0001C4690460E46074600250BE056F82500AE
:1046B00000F0F2FC47F825000135B5F5807F08BF12
:1046C000BDE8F081404621463CB100BF02789542EA
:1046D00006D0013900F10100F8D10021E6E700BF62
:1046E0000121E3E701380139202200BF11F8013F21
:1046F000013A00F8013FF9D1704780B502EB820220
:1047000000EB8210203000F0B1FB80BD80B502EBE1
:10471000420200EB4210803000F064FB80BD80B5A7
:1047200002EB420200EB421000F5007000F05AFB71
:1047300080BD80B54FF4D07302FB030000F56070BC
:1047400000F0BCFB80BD000001380139202200BF11
:1047500011F8013F013A00F8013FF9D1704700001C
:104760001F300139202200BF11F8013F013A00F843
:10477000013FF9D1704700003F300139402200BFAE
:1047800011F8013F013A00F8013FF9D170470000EC
:104790002DE9F04DB6B06E46804630460D46FEF728
:1047A00085F9304629462022FEF786F93046FEF785
:1047B000F8F934AD284608213246FEF71FFA681E84
:1047C000002100274FF0000A10F8012FC1F1200648
:1047D00022FA06F6B1F1200358BF02FA03F602FAF4
:1047E00001F201F1080158BF00224AEA060A4029F5
:1047F00047EA0207E8D140464FF4806107F06CFABF
:10480000D92408206E464FF0020B05E0295CE2B285
:10481000914200F1010008D90828F7D32846082161
:104820003246FEF7EBF90020F0E758F821205FEA66
:104830005A0A48F824200BEA470204F10104C2F1A5
:1048400001024FEA3707B4F5807F48F82120E3D111
:1048500036B0BDE8F08D0000F0B581B014460D46CD
:104860000646002755F8270054F8271081FB000161
:1048700000F0D6FB56F82710084446F82700013709
:10488000B7F5807FEED101B0F0BD00002DE9F04D0D
:1048900082B004384FF0000B4FF0800A019002E024
:1048A0005FEA5A0A2ED0002004E000BF5044B0F561
:1048B000807FF5D200EB0A0188420BF1010BF5D2A3
:1048C00049F6F412C0F200027A4452F82B40019AE1
:1048D000474202EB800502EB8108564658F8040F68
:1048E00080FB040100F09CFB55F8041F013EA1EB86
:1048F00000020844A7F10107C8F800202860EDD1A4
:104900007842D3E702B0BDE8F08D00002DE9F04D0C
:1049100004464FF4807A4FF0010804E04FEA48085B
:10492000B8F5807F30D204EB8807002504E000BF93
:104930004544B5F5807FF1D205EB08008542AAF128
:10494000010AF5D249F67010C0F20000784450F820
:104950002A00C346464200BF54F8250057F82510E8
:10496000014444F8251057F82510401A47F825004F
:1049700080FB060100F054FB47F82500BBF1010B5A
:1049800005F10105E8D1D3E7043C4FF480754AF204
:10499000FA3600BF54F8040F80FB060100F040FB1C
:1049A000013D2060F6D1BDE8F08D0000B0B5041FD8
:1049B0004FF4807554F8040F00F03FFB013D206078
:1049C000F8D1B0BDB0B5041F4FF4807554F8040F92
:1049D00000F03DFB013D2060F8D1B0BD80B54FF047
:1049E000000E00BF51F82EC052F82E30634440F83C
:1049F0002E300EF1010EBEF5807FF3D180BD80B563
:104A0000FFF744FF80BD80B5FFF780FF80BD000049
:104A1000F0B581B014460D460646002755F827002C
:104A200054F8271081FB000100F0FAFA46F827003D
:104A30000137B7F5807FF1D101B0F0BDF0B581B09D
:104A400014460D4606460027E159E81900F018FB08
:104A5000F0510437B7F5806FF6D101B0F0BD00001A
:104A60004FF60042C0F20F02914201DD0120704773
:104A7000002200BF50F82230002B48BFA3EB4303B5
:104A80008B42F3DA0132B2F5807F04BF0020704719
:104A9000F0E700002DE9F04DADF5856D02AE8346DF
:104AA0004EF201083046C0F27F0801F00CF90DF11A
:104AB000DE0A504605213246FDF7C2FF002040F2D3
:104AC000463100260AEB00021AF800305778927837
:104AD00043EA072302F07F0243EA024242453CBF19
:104AE0004BF826200136FF2E02D803308842E9D346
:104AF000FF2E48D8AAF1010001904FF4527004E053
:104B000000210E44B6F5807F3DD24AF6AB21CAF6AD
:104B1000AA21A0FB0112510801EB4101441A08D05F
:104B2000019A00BF53185B780138814202F8013FB7
:104B3000F8D10AEB0400012102AAFDF781FFB6F5C6
:104B4000807F44F0A800DBD00BEB860CC6F58073A9
:104B5000002400210AEB04071AF804507A78BF7881
:104B600045EA022207F07F0742EA074747453CBF74
:104B70004CF8217001319942C3D2A21D824204F146
:104B80000304E7D9BDE70DF5856DBDE8F08D0000A4
:104B90002DE9F04DD6B06E468246304601F0AFF8B2
:104BA0000DF1D00B584601213246FEF763F8002084
:104BB000CD2100271BF8002002F00F030F2B09D096
:104BC00003FB01F6B60A06EB8606F31A02334AF82F
:104BD0002730013712090F2A0BD0FF2F09D802FB0B
:104BE00001F39B0A03EB83039A1A02324AF8272047
:104BF0000137FF2F03D8872800F10100DAD3FF2FF8
:104C000038D84FF0CD0803E01F44B7F5807F31D28C
:104C1000584601216A46FEF72DF80AEB8700C7F5D2
:104C200080710022002300BF1BF8024004F00F0532
:104C30000F2D09D005FB08F6B60A06EB8606761B93
:104C4000023640F82360013324090F2C0BD08B422D
:104C500009D204FB08F6B60A06EB8606361B0236B6
:104C600040F8236001338B42CED2872A02F1010241
:104C7000DAD3C9E756B0BDE8F08D000070B5103842
:104C80004FF0000E11F80EC001EB0E0340F810CFEC
:104C90005A780EF1090E4CEA022CC0F800C09A783E
:104CA000BEF5107F62F3114CC0F800C09A784FEA4D
:104CB00092044460DC784FEA841444EA9202426031
:104CC0001C7964F3913242601C79C2F500324FEADC
:104CD000141585605D794FEA051545EA1414846062
:104CE0009D7965F3113484609D794FEA9516C6600D
:104CF000DE794FEA860646EA9515C5601B7A426062
:104D000045EA8323C4F50032CCF500368260C3F552
:104D100000320660C260B5D170BD00002DE9F04DD3
:104D2000D6B06E46804630460D46FDF7BFFE304693
:104D300029462022FDF7C0FE3046FDF732FF34AD94
:104D4000284601213246FDF795FF681E0021002705
:104D50004FF0000A10F8012FC1F1200622FA06F6E2
:104D6000B1F1200358BF02FA03F602FA01F201F191
:104D7000080158BF00224AEA060A402947EA02070A
:104D8000E8D140464FF4806106F0A6FFD924082000
:104D90006E464FF0020B05E0295CE2B2914200F151
:104DA000010008D98828F7D3284601213246FDF7AB
:104DB00061FF0020F0E758F821205FEA5A0A48F81E
:104DC00024200BEA470204F10104C2F101024FEA78
:104DD0003707B4F5807F48F82120E3D156B0BDE80D
:104DE000F08D00002DE9F04D023801F1100E002386
:104DF0004FF0080A4FF0400BCF58CC18D4E90165AA
:104E0000C7F102081027C5F102050EEB030CA7EB52
:104E1000C6065CF8042C46EA0807EDB247EA851C92
:104E20000427A7EB42025EF8036042EA9502656937
:104E30002027A7EB0616C5F102053243D4E9066424
:104E4000EDB242EAC51200F8032FAAEB860242EA4D
:104E50005502ABEB441720333A43B3F5806F00F8AB
:104E600001CC4270C8D1BDE8F08D000010B51039FA
:104E7000002200BF51F810CF841800F802C0D1E919
:104E800000EC05324FEA8C0343EA1E236370D1E93C
:104E900001C3B2F5A07F4FEA031343EA9C13A3704A
:104EA000D1E902C34FEA831343EA1C13E370CB68D2
:104EB0004FEA93032371DDD110BD00002DE9F04DC1
:104EC0001C310022A1F11C0E9EE8085451F8047C0C
:104ED000CAF58055C3F58054CCF5805ACEF5805C78
:104EE000C7F5805E6F0151E903B651F8208B831836
:104EF000845447EA14245C70EC089C704FEA8A04DE
:104F000044EAD524DC704FEACC1444EA9A14CBF579
:104F1000805B1C714FEA5C045C714FEA0B1444EA3D
:104F20005C27C6F580569F714FEA1B17DF7177002B
:104F300047EA1B371F724FEA8E1747EAD617C8F5A4
:104F400080585F724FEA9E079F724FEAC80747EA90
:104F50009E270D32DF724FEA5817B2F5D07F1F73CC
:104F6000B0D1BDE8F08D000070B51039002200BF4F
:104F700051F8103FD1E901CECE68C3F50033CCF52E
:104F80000034C6F5003C86181D0A7570A5008354D0
:104F900045EA1343CEF5003EB370A309F3704FEA20
:104FA0000E1343EA943333714FEA1E1373714FEAC1
:104FB0008C1343EA1E33B3714FEA9C030932F37139
:104FC0004FEA9C23B2F5107F3372D1D170BD00003F
:104FD000103902384FF0400C51F8103FBCF1010C71
:104FE00083704A6843EA821282704A684FEA9203E9
:104FF00000F8033F8B684FEA031343EA9202027002
:105000008A684FEA12134370CB684FEA830343EA7E
:1050100012124270E0D1704780B505F068FC80BD87
:1050200042F20102C0F2803241F6FF734243CFF6F2
:105030008073C2FB03010846704700F5800141F60A
:10504000FF72C915CFF6807201FB020070474EF265
:105050000101C0F27F01002848BF0844704700F5F5
:10506000800141F6FF72C915CFF6807201FB020084
:105070004EF20101C0F27F01002848BF084470478A
:1050800001F6FF7341F6FF7223EA020284465813C9
:10509000891ACCF80010704702467F30C01142F6E2
:1050A0000B43434303F500000016B3F12E5FA8BF86
:1050B0000020002908BF704741F60001CFF6FD71BE
:1050C00000FB01214FF20003C0F23F0341F6FF72E3
:1050D0009942CFF68072C8BF1144012905DBB0F1B7
:1050E0002B0118BF411C084670470028A0F10100A1
:1050F00008BF2B20704770B588B06E460C46054639
:1051000030462021FFF788FF28462146324600F02E
:1051100003F8002008B070BD2DE9F04DADF6884DC4
:105120000DF608478A46804638461146202206F08A
:10513000C9FD40F2044002AEADF8280C304607F13C
:105140002005FDF7B3FC304639462222FDF7B4FCBA
:105150003046FDF726FD384680213246FDF74EFDEC
:105160005046394607F16004FFF7EEFA50462146F3
:10517000CDF804A0FFF7F4FA40463946CDF8008098
:10518000FFF7B0FA4FF0000B0DF581640DF608073C
:105190004FF0000832E000BF3846FFF707FC384602
:1051A000FFF731FC08F1040082B220462946FFF7E0
:1051B000EFFCDDF804A0214650464246FFF7AFFA67
:1051C000384639462246FFF709FC3846FFF7FAFB16
:1051D000304621463A46FFF731FC504621464246CA
:1051E000FFF7A7FA009831464246FFF786FA08F122
:1051F0000108B8F1040F0BF5807B43D030462946F7
:105200000022FFF7C5FCB8F1000F04D10198314628
:105210000022FFF77BFA3046FFF7F1FB4FEA082048
:1052200082B220460DF60841FFF734FC384621468D
:105230003246FFF7EDFB4FF0010A14E03046FFF76E
:10524000DEFB0BEB0A0082B220460DF60841FFF7A9
:1052500021FC384621463246FFF7FEFA0AF1010AE0
:10526000BAF1040F98D01FFA8AF230462946FFF7A8
:105270008FFCB8F1000FE1D1019831465246FFF79B
:1052800045FADBE7DDF800803046402142464FF426
:10529000A463FDF725FD40F2E820C0F2000032468D
:1052A00009EB000CB9CA0CF5087EAEE8B900B9CA22
:1052B000AEE8B90092E8BB004FF4A4628EE8BB00F0
:1052C0000CF51870414606F0FDFC01983146FFF7D9
:1052D00053FA00200DF6884DBDE8F08D2DE9F04120
:1052E000FF2984BF4FF0FF30BDE8F081064640F251
:1052F000E820C0F2000009EB0007002438460D4604
:1053000087F8A04107F5D07887F8A111FDF7CEFB0B
:1053100007F5087138464022FDF7CEFB3846414676
:105320000222FDF7C9FB384631462A46FDF7C4FB89
:105330002046BDE8F08180B50A46014640F2E820EB
:10534000C0F200004844FDF7B7FB002080BD00001C
:105350002DE9F04DADF5835D86B040F2E828C0F24E
:10536000000809EB08050890284616460391FDF74A
:1053700018FC05F5D074204640212A46FDF73EFC76
:1053800000200DF1340B07900BF5007000210A90FE
:105390002846C5E97811C5E97A11C5E97C11C5F837
:1053A000F811C5F8FC1105F5F07A06F12007FDF7B4
:1053B0007DFB284639462022FDF77EFB28465146D4
:1053C0002022FDF779FB284621464022FDF774FB99
:1053D0002846FDF7E6FB504640212A46FDF70EFC25
:1053E00008982030059006F560700490012001E0D7
:1053F00006980130069080B24FF6FC7101EB8000F8
:1054000009900DF58F604FF4406106F065FC079838
:10541000002780B280000B900B9809EB08033844FA
:1054200003F5F07182B25846FEF7F2FF5846FFF7D7
:10543000E6FA4FF0000A0DF58F6500BF07EB0A0092
:1054400009EB080101F1D00483B2284659463246DF
:105450000094FEF77BFF0AF5807ABAF5806F05F5B8
:105460004075EBD10137042FD6D1089C00270DF5EC
:105470008F6500BF58462946FEF7DEFE5846FFF707
:10548000C2FA5846FFF79EFA28465946FEF7B6FE7E
:1054900058465946FEF7FEFEE0195946FFF798FDBB
:1054A000C037B7F5407F05F54075E3D1079809EBA4
:1054B0000805013007902846FDF7F8FA05F5D07188
:1054C00028464022FDF7F8FA284621464FF440725C
:1054D000FDF7F2FA2846FDF764FB204620212A4614
:1054E000FDF78CFB58462146FFF718FC0DF23440BF
:1054F0005946FEF713FCDDF814A00027012500BF74
:1055000027B158460DF23441FEF744FC0A9C594637
:10551000204600F037FB584631463A46FEF703FF77
:10552000584600F025FA584621465A4600F036FB08
:10553000099809EB0804384404F5F07283B2584620
:1055400059460094FEF7BAFF5846FFF72FFA47F284
:10555000B230C0F2010000F50C415846FFF780FA66
:1055600080B950465946FFF7FFFC032F07F10107AA
:105570004FF0000538BF01250AF5107A042FBFD17E
:1055800003E000BFE8077FF433AF049F4FF0000A49
:105590000DF58F640020CDF830A00B9058460DF229
:1055A0003441FEF7F7FB0A9D5946284600F0EAFA17
:1055B000584631465246FEF7BFFE584600F0D8F92D
:1055C000584629465A4600F0E9FA584621465A46B6
:1055D000FEF748FE5846FFF7E9F920465946FEF720
:1055E0000DFE58465946FEF76FFE5846FFF7DEF9A6
:1055F00047F2B2315846C0F20101FFF731FA0028F4
:105600007FF4F6AE58460DF234413A46FEF7FCFB05
:1056100058464FF4BA31FFF723FA00287FF4E8AE7A
:10562000584659462246FEF7ABFF0B9901445029D4
:105630000B913FF6DDAE0898594652460CABFEF78B
:1056400041FB0AF1010A07F5D077BAF1040F04F51E
:105650004074A3D108980CA9FEF750FB039A40F6BA
:105660007411002011600DF5835D06B0BDE8F08D6A
:105670002DE9F04DADF6081D834640F674108142C9
:105680004FF0FF3040F03981DDF82C89B8F1FF0F81
:1056900000F233813CAFDDF830A938461C46154690
:1056A000FDF704FA384651464FF4A462FDF704FAB8
:1056B0003846FDF776FA70AE304640213A46FDF79F
:1056C0009DFA3846FDF7F2F9384631464022FDF79B
:1056D000F3F90021002007908DF8C01138463146BB
:1056E00002228DF8C181FDF7E7F9DDF82819384667
:1056F0004246FDF7E1F9384629462246FDF7DCF936
:105700003846FDF74EFA304640213A46FDF776FA24
:105710003846FDF7CBF9384631464022FDF7CCF943
:105720000DF20454204659465D46FFF731F83046E5
:105730002146FEF7F3FA0BF1200006900AF1200053
:1057400004904FF6B2760BF51870C0F20106059082
:105750000BF5946081AF4FF000080390CDF808B0CE
:1057600038464FF4407106F0B7FA06992046FFF725
:1057700085FA20463146FFF773F9002840F09680FD
:105780002046FFF73CF94FEA0820DDF8302983B2C4
:10579000BA463846214608AF0097FEF7D7FD05996F
:1057A0002046FFF76BFA20463146FFF759F918B14A
:1057B0000121012079B37AE0DDF80CB037460120F1
:1057C00006462046FFF71BF90798DDF830293044DC
:1057D00083B25046214608AD0095FEF7B7FD032E73
:1057E0000FD020465946FFF749FA20463946FFF7C1
:1057F00037F90BF5107B002806F10100E0D00120FD
:1058000000E00820029D032E4FF000013E4638BF05
:10581000012100294BD1204651465746FEF70CFD89
:105820002046FFF7C3F82046FFF7EDF85046214623
:10583000FEF7E4FC049908EB880001EB8012204697
:1058400070A9FEF7B9FB204651462246FEF70AFD35
:105850002046FFF7ABF82046FFF7B4F80DF1200B18
:1058600058460DF6041142462B46FEF7BDFEB8BB66
:10587000DDF80439204621465A46FEF70FFF384628
:105880002146FFF7A5FB3CA83946C022FDF714F9D5
:10589000079808F10108B8F1040F00F5807007902F
:1058A0007FF45EAF0220022803D01CE00120022812
:1058B00019D13CAC20462E46FDF773F908AD2846B9
:1058C00020212246FDF79AF9002100BF705C6A5C36
:1058D00090420ED101312029F8D1002020210AE088
:1058E00001200228E5D04FF0FF300DF6081DBDE87D
:1058F000F08D4FF0FF30CDF804190DF6081DBDE80E
:10590000F08D0000F0B583B00D4640F674111E46D0
:105910008B42044613D3DDE90810DDF828C0A6F653
:10592000741302F674172B60CDE90010104640F690
:1059300074113A46CDF808C0FFF79AFE50B1002026
:1059400028601EB12046314606F0C6F94FF0FF3000
:1059500003B0F0BD286838B1002000BF395C215485
:10596000296801308842F9D3002003B0F0BD00005F
:105970002DE9F04D40F2000BA0F1020E4FF0010AAC
:105980004FF08008CFF2013B6FF4506007E000BF9A
:10599000B8F1030F4FEA580898BFBDE8F08D002614
:1059A00006E000BF4644B6F5807F0AF1010AEFD257
:1059B00006EB08029642F5D248F6FC41C0F200011F
:1059C000794431F91A5074420EEB46060EEB420749
:1059D000424600BF37F9021F013A05FB01F101FB06
:1059E0000BF34FEA234303FB001136F8023FA4F107
:1059F0000104A3EB114C03EB1141A7F800C0318067
:105A0000E8D16642CEE700002DE9F04D82B00021DA
:105A1000CDF6A10100257F230226C0F6015544F6EC
:105A2000BF6801F1D35B6FF4506A02E07600812E0B
:105A300041D200EB46070021009607E0009E019B43
:105A40003144B1F5807FA3F10103EFD28A1991426D
:105A50000193F3D248F66042C0F200027A4432F970
:105A60001320334630F811C037F811E0013B0EEB3C
:105A70000C0426B206FB08F606F100764FEAA6668D
:105A800005FB06F6A4EB164620F8116037F8116006
:105A9000A6EB0C0636B202FB06F606FB0BF44FEA49
:105AA000244404FB0A664FEA164627F8116001F108
:105AB0000101D7D1C2E7002402384FF4807140F2CF
:105AC000A15C6FF4506344F6BF67CDF6A10400BF3C
:105AD00030F9026F013906FB0CF204FB06F64FEABF
